{
  "contractName": "TicketSystem",
  "abi": [
    {
      "inputs": [],
      "payable": false,
      "stateMutability": "nonpayable",
      "type": "constructor"
    },
    {
      "constant": true,
      "inputs": [],
      "name": "recipient",
      "outputs": [
        {
          "internalType": "address payable",
          "name": "",
          "type": "address"
        }
      ],
      "payable": false,
      "stateMutability": "view",
      "type": "function"
    },
    {
      "constant": true,
      "inputs": [
        {
          "internalType": "uint256",
          "name": "",
          "type": "uint256"
        }
      ],
      "name": "tickets",
      "outputs": [
        {
          "internalType": "address payable",
          "name": "owner_id",
          "type": "address"
        },
        {
          "internalType": "string",
          "name": "movie_id",
          "type": "string"
        },
        {
          "internalType": "string",
          "name": "ticket_state",
          "type": "string"
        },
        {
          "internalType": "address payable",
          "name": "sell_to",
          "type": "address"
        }
      ],
      "payable": false,
      "stateMutability": "view",
      "type": "function"
    },
    {
      "constant": true,
      "inputs": [],
      "name": "tot_tickets",
      "outputs": [
        {
          "internalType": "uint256",
          "name": "",
          "type": "uint256"
        }
      ],
      "payable": false,
      "stateMutability": "view",
      "type": "function"
    },
    {
      "constant": false,
      "inputs": [
        {
          "internalType": "address payable",
          "name": "owner_id",
          "type": "address"
        },
        {
          "internalType": "uint256",
          "name": "ticket_id",
          "type": "uint256"
        }
      ],
      "name": "redeem_to_pool",
      "outputs": [],
      "payable": false,
      "stateMutability": "nonpayable",
      "type": "function"
    },
    {
      "constant": true,
      "inputs": [],
      "name": "balanceOf",
      "outputs": [
        {
          "internalType": "uint256",
          "name": "",
          "type": "uint256"
        }
      ],
      "payable": false,
      "stateMutability": "view",
      "type": "function"
    },
    {
      "constant": false,
      "inputs": [],
      "name": "buyTicket",
      "outputs": [],
      "payable": true,
      "stateMutability": "payable",
      "type": "function"
    },
    {
      "constant": false,
      "inputs": [],
      "name": "invest",
      "outputs": [],
      "payable": true,
      "stateMutability": "payable",
      "type": "function"
    },
    {
      "constant": false,
      "inputs": [
        {
          "internalType": "address payable",
          "name": "addr",
          "type": "address"
        },
        {
          "internalType": "uint256",
          "name": "ticket_id",
          "type": "uint256"
        }
      ],
      "name": "sell_to",
      "outputs": [],
      "payable": false,
      "stateMutability": "nonpayable",
      "type": "function"
    },
    {
      "constant": false,
      "inputs": [
        {
          "internalType": "uint256",
          "name": "ticket_id",
          "type": "uint256"
        }
      ],
      "name": "acceptTicket",
      "outputs": [],
      "payable": true,
      "stateMutability": "payable",
      "type": "function"
    },
    {
      "constant": false,
      "inputs": [
        {
          "internalType": "uint256",
          "name": "ticket_id",
          "type": "uint256"
        }
      ],
      "name": "withdrawTransfer",
      "outputs": [],
      "payable": false,
      "stateMutability": "nonpayable",
      "type": "function"
    }
  ],
  "bytecode": "0x60806040526028600155670de0b6b3a7640000600255600380546001600160a01b03191690553480156200003257600080fd5b5060005b600154811015620001335760408051608081018252600380546001600160a01b0390811680845284518086018652928352624e2f4160e81b602080850191909152808501938452855180870187526009815268617661696c61626c6560b81b8183015285870152606085019190915260008681526004825294909420835181546001600160a01b03191692169190911781559051805192939192620000e292600185019201906200013a565b5060408201518051620001009160028401916020909101906200013a565b5060609190910151600390910180546001600160a01b0319166001600160a01b0390921691909117905560010162000036565b50620001df565b828054600181600116156101000203166002900490600052602060002090601f016020900481019282601f106200017d57805160ff1916838001178555620001ad565b82800160010185558215620001ad579182015b82811115620001ad57825182559160200191906001019062000190565b50620001bb929150620001bf565b5090565b620001dc91905b80821115620001bb5760008155600101620001c6565b90565b610e1f80620001ef6000396000f3fe6080604052600436106100915760003560e01c8063773112f911610059578063773112f91461025c578063b403078414610295578063b9d47deb146102bf578063e8b5e51f146102f8578063edca914c1461030057610091565b806318293ec61461009657806350b44712146100b55780635217c15a146101ef57806366d003ac14610216578063722713f714610247575b600080fd5b6100b3600480360360208110156100ac57600080fd5b5035610308565b005b3480156100c157600080fd5b506100df600480360360208110156100d857600080fd5b503561055c565b60405180856001600160a01b03166001600160a01b031681526020018060200180602001846001600160a01b03166001600160a01b03168152602001838103835286818151815260200191508051906020019080838360005b83811015610150578181015183820152602001610138565b50505050905090810190601f16801561017d5780820380516001836020036101000a031916815260200191505b50838103825285518152855160209182019187019080838360005b838110156101b0578181015183820152602001610198565b50505050905090810190601f1680156101dd5780820380516001836020036101000a031916815260200191505b50965050505050505060405180910390f35b3480156101fb57600080fd5b506102046106b1565b60408051918252519081900360200190f35b34801561022257600080fd5b5061022b6106b7565b604080516001600160a01b039092168252519081900360200190f35b34801561025357600080fd5b506102046106c6565b34801561026857600080fd5b506100b36004803603604081101561027f57600080fd5b506001600160a01b0381351690602001356106cb565b3480156102a157600080fd5b506100b3600480360360208110156102b857600080fd5b5035610818565b3480156102cb57600080fd5b506100b3600480360360408110156102e257600080fd5b506001600160a01b038135169060200135610890565b6100b36109d2565b6100b36109d4565b600254341061052b576000818152600460205260409020600301546001600160a01b0316331480156103e457506040518060400160405280600f81526020016e3ab82fb337b92fba3930b739b332b960891b815250805190602001206004600083815260200190815260200160002060020160405180828054600181600116156101000203166002900480156103d55780601f106103b35761010080835404028352918201916103d5565b820191906000526020600020905b8154815290600101906020018083116103c1575b50509150506040518091039020145b156104f8576002546040513391340380156108fc02916000818181858888f19350505050158015610419573d6000803e3d6000fd5b506000818152600460205260408082205460025491516001600160a01b0390911692839280156108fc02929091818181858888f19350505050158015610463573d6000803e3d6000fd5b50600082815260046020818152604080842080546001600160a01b031916331781558151808301909252600b82526a756e617661696c61626c6560a81b8284019081529487905292909152516104bf9260029092019190610d52565b505060038054600083815260046020526040902090910180546001600160a01b0319166001600160a01b03909216919091179055610526565b60405133903480156108fc02916000818181858888f19350505050158015610524573d6000803e3d6000fd5b505b610559565b60405133903480156108fc02916000818181858888f19350505050158015610557573d6000803e3d6000fd5b505b50565b6004602090815260009182526040918290208054600180830180548651600261010094831615949094026000190190911692909204601f81018690048602830186019096528582526001600160a01b039092169492939092908301828280156106065780601f106105db57610100808354040283529160200191610606565b820191906000526020600020905b8154815290600101906020018083116105e957829003601f168201915b50505060028085018054604080516020601f60001961010060018716150201909416959095049283018590048502810185019091528181529596959450909250908301828280156106985780601f1061066d57610100808354040283529160200191610698565b820191906000526020600020905b81548152906001019060200180831161067b57829003601f168201915b505050600390930154919250506001600160a01b031684565b60015481565b6000546001600160a01b031681565b475b90565b6000818152600460205260409020546001600160a01b03838116911614801561079a57506040518060400160405280600b81526020016a756e617661696c61626c6560a81b8152508051906020012060046000838152602001908152602001600020600201604051808280546001816001161561010002031660029004801561078b5780601f1061076957610100808354040283529182019161078b565b820191906000526020600020905b815481529060010190602001808311610777575b50509150506040518091039020145b15610557576040805180820182526009815268617661696c61626c6560b81b6020808301918252600085815260049091529290922090516107e19260029092019190610d52565b5060038054600083815260046020526040902090910180546001600160a01b0319166001600160a01b039092169190911790555050565b604080518082018252600b81526a756e617661696c61626c6560a81b60208083019182526000858152600490915292909220905161085c9260029092019190610d52565b50600380546000928352600460205260409092200180546001600160a01b0319166001600160a01b03909216919091179055565b6000818152600460205260409020546001600160a01b03163314801561095c57506040518060400160405280600b81526020016a756e617661696c61626c6560a81b8152508051906020012060046000838152602001908152602001600020600201604051808280546001816001161561010002031660029004801561094d5780601f1061092b57610100808354040283529182019161094d565b820191906000526020600020905b815481529060010190602001808311610939575b50509150506040518091039020145b156105575760008181526004602081815260408084206003810180546001600160a01b0319166001600160a01b0389161790558151808301909252600f82526e3ab82fb337b92fba3930b739b332b960891b8284019081529486905292909152516109cd9260029092019190610d52565b505050565b565b6002543410610d26576000805b600154811015610cec5760405180604001604052806009815260200168617661696c61626c6560b81b81525080519060200120600460008381526020019081526020016000206002016040518082805460018160011615610100020316600290048015610a855780601f10610a63576101008083540402835291820191610a85565b820191906000526020600020905b815481529060010190602001808311610a71575b50509150506040518091039020148015610abb57506003546000828152600460205260409020546001600160a01b039081169116145b15610b5657600081815260046020818152604080842080546001600160a01b031916331781558151808301909252600b82526a756e617661696c61626c6560a81b828401908152948690529290915251610b1b9260029092019190610d52565b506002546040513391340380156108fc02916000818181858888f19350505050158015610b4c573d6000803e3d6000fd5b5060019150610cec565b60405180604001604052806009815260200168617661696c61626c6560b81b81525080519060200120600460008381526020019081526020016000206002016040518082805460018160011615610100020316600290048015610bf05780601f10610bce576101008083540402835291820191610bf0565b820191906000526020600020905b815481529060010190602001808311610bdc575b505091505060405180910390201415610ce4576000818152600460205260408082205460025491516001600160a01b0390911692839280156108fc02929091818181858888f19350505050158015610c4c573d6000803e3d6000fd5b50600082815260046020818152604080842080546001600160a01b031916331781558151808301909252600b82526a756e617661696c61626c6560a81b828401908152948790529290915251610ca89260029092019190610d52565b506002546040513391340380156108fc02916000818181858888f19350505050158015610cd9573d6000803e3d6000fd5b506001925050610cec565b6001016109e1565b5080610d205760405133903480156108fc02916000818181858888f19350505050158015610d1e573d6000803e3d6000fd5b505b506109d2565b60405133903480156108fc02916000818181858888f19350505050158015610559573d6000803e3d6000fd5b828054600181600116156101000203166002900490600052602060002090601f016020900481019282601f10610d9357805160ff1916838001178555610dc0565b82800160010185558215610dc0579182015b82811115610dc0578251825591602001919060010190610da5565b50610dcc929150610dd0565b5090565b6106c891905b80821115610dcc5760008155600101610dd656fea265627a7a723158205c2545ff28ca178da8d44685f28f9711c07af1c74851548589b663fb10d40df164736f6c63430005100032",
  "source": "pragma solidity ^0.5.0;\r\ncontract TicketSystem{\r\n  address payable public recipient; \r\n  uint public tot_tickets = 40;\r\n  uint tick_price = 1 ether;\r\n  address payable null_addr = address(0);\r\n  struct Ticket{\r\n    address payable owner_id;\r\n    string movie_id;\r\n    string ticket_state;\r\n    address payable sell_to;\r\n\r\n  } \r\n  mapping(uint => Ticket) public tickets;\r\n  constructor() public {\r\n      \r\n  \r\n        for (uint i = 0; i < tot_tickets; i++)\r\n        {\r\n            tickets[i] = Ticket(null_addr,\"N/A\",\"available\",null_addr);\r\n        }\r\n    }\r\n function redeem_to_pool(address payable owner_id, uint ticket_id) external \r\n {\r\n    //buyer_id.transfer(1 ether);\r\n    \r\n      if(tickets[ticket_id].owner_id == owner_id && keccak256(bytes(tickets[ticket_id].ticket_state)) == keccak256(bytes(\"unavailable\")) )\r\n      {\r\n        \r\n        tickets[ticket_id].ticket_state = \"available\";\r\n        tickets[ticket_id].sell_to = null_addr;\r\n      }\r\n }\r\n function balanceOf() external view returns (uint){\r\n     return address(this).balance;\r\n }\r\n function buyTicket() public payable {\r\n    if(msg.value>=tick_price)\r\n    {\r\n      bool found = false;\r\n      for(uint i = 0; i < tot_tickets; i++ )\r\n      {\r\n          if(keccak256(bytes(tickets[i].ticket_state)) == keccak256(bytes(\"available\")) && tickets[i].owner_id == null_addr)\r\n          {\r\n            tickets[i].owner_id = msg.sender;\r\n            tickets[i].ticket_state = \"unavailable\";\r\n            msg.sender.transfer(msg.value - tick_price);\r\n            found = true;\r\n            break;\r\n          }\r\n          else if(keccak256(bytes(tickets[i].ticket_state)) == keccak256(bytes(\"available\")))\r\n          {\r\n            address payable owner_id = tickets[i].owner_id;\r\n            owner_id.transfer(tick_price);\r\n            tickets[i].owner_id = msg.sender;\r\n            tickets[i].ticket_state = \"unavailable\";\r\n            msg.sender.transfer(msg.value - tick_price);\r\n            found = true;\r\n            break;\r\n          }\r\n      }\r\n      if(found == false)\r\n      {\r\n        msg.sender.transfer(msg.value);\r\n      }\r\n\r\n    }\r\n    else\r\n    {\r\n      msg.sender.transfer(msg.value);\r\n    }\r\n }\r\n  function uint2str(uint _i) internal pure returns (string memory _uintAsString) {\r\n    if (_i == 0) {\r\n        return \"0\";\r\n    }\r\n    uint j = _i;\r\n    uint len;\r\n    while (j != 0) {\r\n        len++;\r\n        j /= 10;\r\n    }\r\n    bytes memory bstr = new bytes(len);\r\n    uint k = len - 1;\r\n    while (_i != 0) {\r\n        bstr[k--] = byte(uint8(48 + _i % 10));\r\n        _i /= 10;\r\n    }\r\n    return string(bstr);\r\n}\r\n function invest() external payable{\r\n\r\n }\r\n\r\n// Sell_to -> A ticket owner can sell his ticket to a some guy with a particular address\r\n// Claim ticket -> If someone wants to sell you his ticket, you can claim it. This function completes two transactions.\r\n function sell_to(address payable addr, uint ticket_id) public \r\n {\r\n      if(tickets[ticket_id].owner_id == msg.sender && keccak256(bytes(tickets[ticket_id].ticket_state)) == keccak256(bytes(\"unavailable\")))\r\n      {\r\n        tickets[ticket_id].sell_to = addr;\r\n        tickets[ticket_id].ticket_state = \"up_for_transfer\";\r\n      }\r\n }\r\n\r\nfunction acceptTicket(uint ticket_id) external payable\r\n{\r\n    if(msg.value>=tick_price)\r\n    {\r\n      if(tickets[ticket_id].sell_to == msg.sender && keccak256(bytes(tickets[ticket_id].ticket_state)) == keccak256(bytes(\"up_for_transfer\")) )\r\n      {\r\n        msg.sender.transfer(msg.value-tick_price);\r\n        address payable addr = tickets[ticket_id].owner_id;\r\n        addr.transfer(tick_price);\r\n        tickets[ticket_id].owner_id = msg.sender;\r\n        tickets[ticket_id].ticket_state = \"unavailable\";\r\n        tickets[ticket_id].sell_to = null_addr;\r\n      }\r\n      else\r\n      {\r\n        msg.sender.transfer(msg.value);\r\n      }\r\n    }\r\n    else\r\n    {\r\n        msg.sender.transfer(msg.value);\r\n    }\r\n}\r\nfunction withdrawTransfer(uint ticket_id) public\r\n{\r\n    tickets[ticket_id].ticket_state = \"unavailable\";\r\n    tickets[ticket_id].sell_to = null_addr;\r\n}\r\n  \r\n \r\n\r\n}",
  "sourcePath": "D:/truffledemo/contracts/TicketSystem.sol",
  "compiler": {
    "name": "solc",
    "version": "0.5.16+commit.9c3226ce.Emscripten.clang"
  },
  "schemaVersion": "3.3.2",
  "updatedAt": "2020-12-18T16:33:34.733Z",
  "networkType": "ethereum",
  "devdoc": {
    "methods": {}
  },
  "userdoc": {
    "methods": {}
  }
}