{
  "contractName": "TicketSystem",
  "abi": [
    {
      "inputs": [],
      "payable": false,
      "stateMutability": "nonpayable",
      "type": "constructor"
    },
    {
      "constant": true,
      "inputs": [],
      "name": "recipient",
      "outputs": [
        {
          "internalType": "address payable",
          "name": "",
          "type": "address"
        }
      ],
      "payable": false,
      "stateMutability": "view",
      "type": "function"
    },
    {
      "constant": true,
      "inputs": [
        {
          "internalType": "uint256",
          "name": "",
          "type": "uint256"
        }
      ],
      "name": "tickets",
      "outputs": [
        {
          "internalType": "address payable",
          "name": "owner_id",
          "type": "address"
        },
        {
          "internalType": "string",
          "name": "movie_id",
          "type": "string"
        },
        {
          "internalType": "string",
          "name": "ticket_state",
          "type": "string"
        },
        {
          "internalType": "address payable",
          "name": "sell_to",
          "type": "address"
        }
      ],
      "payable": false,
      "stateMutability": "view",
      "type": "function"
    },
    {
      "constant": true,
      "inputs": [],
      "name": "tot_tickets",
      "outputs": [
        {
          "internalType": "uint256",
          "name": "",
          "type": "uint256"
        }
      ],
      "payable": false,
      "stateMutability": "view",
      "type": "function"
    },
    {
      "constant": false,
      "inputs": [
        {
          "internalType": "address payable",
          "name": "owner_id",
          "type": "address"
        }
      ],
      "name": "redeem_to_pool",
      "outputs": [],
      "payable": false,
      "stateMutability": "nonpayable",
      "type": "function"
    },
    {
      "constant": true,
      "inputs": [],
      "name": "balanceOf",
      "outputs": [
        {
          "internalType": "uint256",
          "name": "",
          "type": "uint256"
        }
      ],
      "payable": false,
      "stateMutability": "view",
      "type": "function"
    },
    {
      "constant": false,
      "inputs": [],
      "name": "buyTicket",
      "outputs": [],
      "payable": true,
      "stateMutability": "payable",
      "type": "function"
    },
    {
      "constant": false,
      "inputs": [],
      "name": "invest",
      "outputs": [],
      "payable": true,
      "stateMutability": "payable",
      "type": "function"
    },
    {
      "constant": false,
      "inputs": [
        {
          "internalType": "address payable",
          "name": "addr",
          "type": "address"
        }
      ],
      "name": "sell_to",
      "outputs": [],
      "payable": false,
      "stateMutability": "nonpayable",
      "type": "function"
    },
    {
      "constant": false,
      "inputs": [
        {
          "internalType": "uint256",
          "name": "ticket_id",
          "type": "uint256"
        }
      ],
      "name": "acceptTicket",
      "outputs": [],
      "payable": true,
      "stateMutability": "payable",
      "type": "function"
    },
    {
      "constant": false,
      "inputs": [
        {
          "internalType": "uint256",
          "name": "ticket_id",
          "type": "uint256"
        }
      ],
      "name": "withdrawTransfer",
      "outputs": [],
      "payable": false,
      "stateMutability": "nonpayable",
      "type": "function"
    }
  ],
  "bytecode": "0x60806040526028600155670de0b6b3a7640000600255600380546001600160a01b031916905534801561003157600080fd5b5060005b60015481101561012c5760408051608081018252600380546001600160a01b0390811680845284518086018652928352624e2f4160e81b602080850191909152808501938452855180870187526009815268617661696c61626c6560b81b8183015285870152606085019190915260008681526004825294909420835181546001600160a01b031916921691909117815590518051929391926100de9260018501920190610132565b50604082015180516100fa916002840191602090910190610132565b5060609190910151600390910180546001600160a01b0319166001600160a01b03909216919091179055600101610035565b506101cd565b828054600181600116156101000203166002900490600052602060002090601f016020900481019282601f1061017357805160ff19168380011785556101a0565b828001600101855582156101a0579182015b828111156101a0578251825591602001919060010190610185565b506101ac9291506101b0565b5090565b6101ca91905b808211156101ac57600081556001016101b6565b90565b610d5580620001dd6000396000f3fe6080604052600436106100915760003560e01c80639e9da18e116100595780639e9da18e1461025c578063b40307841461028f578063e8b5e51f146102b9578063edca914c146102c1578063f4fd9d12146102c957610091565b806318293ec61461009657806350b44712146100b55780635217c15a146101ef57806366d003ac14610216578063722713f714610247575b600080fd5b6100b3600480360360208110156100ac57600080fd5b50356102fc565b005b3480156100c157600080fd5b506100df600480360360208110156100d857600080fd5b503561049a565b60405180856001600160a01b03166001600160a01b031681526020018060200180602001846001600160a01b03166001600160a01b03168152602001838103835286818151815260200191508051906020019080838360005b83811015610150578181015183820152602001610138565b50505050905090810190601f16801561017d5780820380516001836020036101000a031916815260200191505b50838103825285518152855160209182019187019080838360005b838110156101b0578181015183820152602001610198565b50505050905090810190601f1680156101dd5780820380516001836020036101000a031916815260200191505b50965050505050505060405180910390f35b3480156101fb57600080fd5b506102046105ef565b60408051918252519081900360200190f35b34801561022257600080fd5b5061022b6105f5565b604080516001600160a01b039092168252519081900360200190f35b34801561025357600080fd5b50610204610604565b34801561026857600080fd5b506100b36004803603602081101561027f57600080fd5b50356001600160a01b0316610609565b34801561029b57600080fd5b506100b3600480360360208110156102b257600080fd5b503561076c565b6100b36107b0565b6100b36107b2565b3480156102d557600080fd5b506100b3600480360360208110156102ec57600080fd5b50356001600160a01b0316610b30565b6002543410610469576000818152600460205260409020600301546001600160a01b0316331415610436576002546040513391340380156108fc02916000818181858888f19350505050158015610357573d6000803e3d6000fd5b506000818152600460205260408082205460025491516001600160a01b0390911692839280156108fc02929091818181858888f193505050501580156103a1573d6000803e3d6000fd5b50600082815260046020818152604080842080546001600160a01b031916331781558151808301909252600b82526a756e617661696c61626c6560a81b8284019081529487905292909152516103fd9260029092019190610c88565b505060038054600083815260046020526040902090910180546001600160a01b0319166001600160a01b03909216919091179055610464565b60405133903480156108fc02916000818181858888f19350505050158015610462573d6000803e3d6000fd5b505b610497565b60405133903480156108fc02916000818181858888f19350505050158015610495573d6000803e3d6000fd5b505b50565b6004602090815260009182526040918290208054600180830180548651600261010094831615949094026000190190911692909204601f81018690048602830186019096528582526001600160a01b039092169492939092908301828280156105445780601f1061051957610100808354040283529160200191610544565b820191906000526020600020905b81548152906001019060200180831161052757829003601f168201915b50505060028085018054604080516020601f60001961010060018716150201909416959095049283018590048502810185019091528181529596959450909250908301828280156105d65780601f106105ab576101008083540402835291602001916105d6565b820191906000526020600020905b8154815290600101906020018083116105b957829003601f168201915b505050600390930154919250506001600160a01b031684565b60015481565b6000546001600160a01b031681565b475b90565b60005b600154811015610495576000818152600460205260409020546001600160a01b0383811691161480156106e557506040518060400160405280600b81526020016a756e617661696c61626c6560a81b815250805190602001206004600083815260200190815260200160002060020160405180828054600181600116156101000203166002900480156106d65780601f106106b45761010080835404028352918201916106d6565b820191906000526020600020905b8154815290600101906020018083116106c2575b50509150506040518091039020145b15610764576040805180820182526009815268617661696c61626c6560b81b60208083019182526000858152600490915292909220905161072c9260029092019190610c88565b5060038054600083815260046020526040902090910180546001600160a01b0319166001600160a01b03909216919091179055610495565b60010161060c565b604080518082018252600b81526a756e617661696c61626c6560a81b6020808301918252600085815260049091529290922090516104959260029092019190610c88565b565b6002543410610b04576000805b600154811015610aca5760405180604001604052806009815260200168617661696c61626c6560b81b815250805190602001206004600083815260200190815260200160002060020160405180828054600181600116156101000203166002900480156108635780601f10610841576101008083540402835291820191610863565b820191906000526020600020905b81548152906001019060200180831161084f575b5050915050604051809103902014801561089957506003546000828152600460205260409020546001600160a01b039081169116145b1561093457600081815260046020818152604080842080546001600160a01b031916331781558151808301909252600b82526a756e617661696c61626c6560a81b8284019081529486905292909152516108f99260029092019190610c88565b506002546040513391340380156108fc02916000818181858888f1935050505015801561092a573d6000803e3d6000fd5b5060019150610aca565b60405180604001604052806009815260200168617661696c61626c6560b81b815250805190602001206004600083815260200190815260200160002060020160405180828054600181600116156101000203166002900480156109ce5780601f106109ac5761010080835404028352918201916109ce565b820191906000526020600020905b8154815290600101906020018083116109ba575b505091505060405180910390201415610ac2576000818152600460205260408082205460025491516001600160a01b0390911692839280156108fc02929091818181858888f19350505050158015610a2a573d6000803e3d6000fd5b50600082815260046020818152604080842080546001600160a01b031916331781558151808301909252600b82526a756e617661696c61626c6560a81b828401908152948790529290915251610a869260029092019190610c88565b506002546040513391340380156108fc02916000818181858888f19350505050158015610ab7573d6000803e3d6000fd5b506001925050610aca565b6001016107bf565b5080610afe5760405133903480156108fc02916000818181858888f19350505050158015610afc573d6000803e3d6000fd5b505b506107b0565b60405133903480156108fc02916000818181858888f19350505050158015610497573d6000803e3d6000fd5b60005b600154811015610495576000818152600460205260409020546001600160a01b031633148015610c0957506040518060400160405280600b81526020016a756e617661696c61626c6560a81b81525080519060200120600460008381526020019081526020016000206002016040518082805460018160011615610100020316600290048015610bfa5780601f10610bd8576101008083540402835291820191610bfa565b820191906000526020600020905b815481529060010190602001808311610be6575b50509150506040518091039020145b15610c805760008181526004602081815260408084206003810180546001600160a01b0319166001600160a01b0389161790558151808301909252600f82526e3ab82fb337b92fba3930b739b332b960891b828401908152948690529290915251610c7a9260029092019190610c88565b50610495565b600101610b33565b828054600181600116156101000203166002900490600052602060002090601f016020900481019282601f10610cc957805160ff1916838001178555610cf6565b82800160010185558215610cf6579182015b82811115610cf6578251825591602001919060010190610cdb565b50610d02929150610d06565b5090565b61060691905b80821115610d025760008155600101610d0c56fea265627a7a72315820171824078508c1eefab2118e9add23772ab6cb4de6adf92390d3f6e0c487754764736f6c63430005100032",
  "source": "pragma solidity ^0.5.0;\r\ncontract TicketSystem{\r\n  address payable public recipient; \r\n  uint public tot_tickets = 40;\r\n  uint tick_price = 1 ether;\r\n  address payable null_addr = address(0);\r\n  struct Ticket{\r\n    address payable owner_id;\r\n    string movie_id;\r\n    string ticket_state;\r\n    address payable sell_to;\r\n\r\n  } \r\n  mapping(uint => Ticket) public tickets;\r\n  constructor() public {\r\n      \r\n  \r\n        for (uint i = 0; i < tot_tickets; i++)\r\n        {\r\n            tickets[i] = Ticket(null_addr,\"N/A\",\"available\",null_addr);\r\n        }\r\n    }\r\n function redeem_to_pool(address payable owner_id) external \r\n {\r\n    //buyer_id.transfer(1 ether);\r\n    for(uint i=0; i < tot_tickets ; i++)\r\n    {\r\n      if(tickets[i].owner_id == owner_id && keccak256(bytes(tickets[i].ticket_state)) == keccak256(bytes(\"unavailable\")))\r\n      {\r\n        \r\n        tickets[i].ticket_state = \"available\";\r\n        tickets[i].sell_to = null_addr;\r\n        break;\r\n\r\n      }\r\n    }\r\n }\r\n function balanceOf() external view returns (uint){\r\n     return address(this).balance;\r\n }\r\n function buyTicket() public payable {\r\n    if(msg.value>=tick_price)\r\n    {\r\n      bool found = false;\r\n      for(uint i = 0; i < tot_tickets; i++ )\r\n      {\r\n          if(keccak256(bytes(tickets[i].ticket_state)) == keccak256(bytes(\"available\")) && tickets[i].owner_id == null_addr)\r\n          {\r\n            tickets[i].owner_id = msg.sender;\r\n            tickets[i].ticket_state = \"unavailable\";\r\n            msg.sender.transfer(msg.value - tick_price);\r\n            found = true;\r\n            break;\r\n          }\r\n          else if(keccak256(bytes(tickets[i].ticket_state)) == keccak256(bytes(\"available\")))\r\n          {\r\n            address payable owner_id = tickets[i].owner_id;\r\n            owner_id.transfer(tick_price);\r\n            tickets[i].owner_id = msg.sender;\r\n            tickets[i].ticket_state = \"unavailable\";\r\n            msg.sender.transfer(msg.value - tick_price);\r\n            found = true;\r\n            break;\r\n          }\r\n      }\r\n      if(found == false)\r\n      {\r\n        msg.sender.transfer(msg.value);\r\n      }\r\n\r\n    }\r\n    else\r\n    {\r\n      msg.sender.transfer(msg.value);\r\n    }\r\n }\r\n  function uint2str(uint _i) internal pure returns (string memory _uintAsString) {\r\n    if (_i == 0) {\r\n        return \"0\";\r\n    }\r\n    uint j = _i;\r\n    uint len;\r\n    while (j != 0) {\r\n        len++;\r\n        j /= 10;\r\n    }\r\n    bytes memory bstr = new bytes(len);\r\n    uint k = len - 1;\r\n    while (_i != 0) {\r\n        bstr[k--] = byte(uint8(48 + _i % 10));\r\n        _i /= 10;\r\n    }\r\n    return string(bstr);\r\n}\r\n function invest() external payable{\r\n\r\n }\r\n\r\n// Sell_to -> A ticket owner can sell his ticket to a some guy with a particular address\r\n// Claim ticket -> If someone wants to sell you his ticket, you can claim it. This function completes two transactions.\r\n function sell_to(address payable addr) public \r\n {\r\n    for(uint i=0; i < tot_tickets ; i++)\r\n    {\r\n      if(tickets[i].owner_id == msg.sender && keccak256(bytes(tickets[i].ticket_state)) == keccak256(bytes(\"unavailable\")))\r\n      {\r\n        tickets[i].sell_to = addr;\r\n        tickets[i].ticket_state = \"up_for_transfer\";\r\n        break;\r\n      }\r\n    }\r\n }\r\n\r\nfunction acceptTicket(uint ticket_id) external payable\r\n{\r\n    if(msg.value>=tick_price)\r\n    {\r\n      if(tickets[ticket_id].sell_to == msg.sender)\r\n      {\r\n        msg.sender.transfer(msg.value-tick_price);\r\n        address payable addr = tickets[ticket_id].owner_id;\r\n        addr.transfer(tick_price);\r\n        tickets[ticket_id].owner_id = msg.sender;\r\n        tickets[ticket_id].ticket_state = \"unavailable\";\r\n        tickets[ticket_id].sell_to = null_addr;\r\n      }\r\n      else\r\n      {\r\n        msg.sender.transfer(msg.value);\r\n      }\r\n    }\r\n    else\r\n    {\r\n        msg.sender.transfer(msg.value);\r\n    }\r\n}\r\nfunction withdrawTransfer(uint ticket_id) public\r\n{\r\n    tickets[ticket_id].ticket_state = \"unavailable\";\r\n}\r\n  \r\n \r\n\r\n}",
  "sourcePath": "D:/truffledemo/contracts/TicketSystem.sol",
  "compiler": {
    "name": "solc",
    "version": "0.5.16+commit.9c3226ce.Emscripten.clang"
  },
  "schemaVersion": "3.3.2",
  "updatedAt": "2020-12-11T13:26:56.275Z",
  "networkType": "ethereum",
  "devdoc": {
    "methods": {}
  },
  "userdoc": {
    "methods": {}
  }
}