{
  "contractName": "TicketSystem",
  "abi": [
    {
      "inputs": [],
      "payable": false,
      "stateMutability": "nonpayable",
      "type": "constructor"
    },
    {
      "constant": true,
      "inputs": [],
      "name": "recipient",
      "outputs": [
        {
          "internalType": "address payable",
          "name": "",
          "type": "address"
        }
      ],
      "payable": false,
      "stateMutability": "view",
      "type": "function"
    },
    {
      "constant": true,
      "inputs": [
        {
          "internalType": "uint256",
          "name": "",
          "type": "uint256"
        }
      ],
      "name": "tickets",
      "outputs": [
        {
          "internalType": "address payable",
          "name": "owner_id",
          "type": "address"
        },
        {
          "internalType": "string",
          "name": "movie_id",
          "type": "string"
        },
        {
          "internalType": "string",
          "name": "ticket_state",
          "type": "string"
        },
        {
          "internalType": "string",
          "name": "sell_to",
          "type": "string"
        }
      ],
      "payable": false,
      "stateMutability": "view",
      "type": "function"
    },
    {
      "constant": true,
      "inputs": [],
      "name": "tot_tickets",
      "outputs": [
        {
          "internalType": "uint256",
          "name": "",
          "type": "uint256"
        }
      ],
      "payable": false,
      "stateMutability": "view",
      "type": "function"
    },
    {
      "constant": false,
      "inputs": [
        {
          "internalType": "address payable",
          "name": "owner_id",
          "type": "address"
        }
      ],
      "name": "redeem_to_pool",
      "outputs": [],
      "payable": false,
      "stateMutability": "nonpayable",
      "type": "function"
    },
    {
      "constant": true,
      "inputs": [],
      "name": "balanceOf",
      "outputs": [
        {
          "internalType": "uint256",
          "name": "",
          "type": "uint256"
        }
      ],
      "payable": false,
      "stateMutability": "view",
      "type": "function"
    },
    {
      "constant": false,
      "inputs": [],
      "name": "deposit",
      "outputs": [],
      "payable": true,
      "stateMutability": "payable",
      "type": "function"
    },
    {
      "constant": false,
      "inputs": [],
      "name": "invest",
      "outputs": [],
      "payable": true,
      "stateMutability": "payable",
      "type": "function"
    }
  ],
  "bytecode": "0x60806040526028600155670de0b6b3a764000060025534801561002157600080fd5b5060005b60015481101561011f57604080516080810182526000808252825180840184526003808252624e2f4160e81b602080840191909152808501928352855180870187526009815268617661696c61626c6560b81b8183015285870152855180870187526006815265616e796f6e6560d01b81830152606086015286845290815293909120825181546001600160a01b0319166001600160a01b0390911617815590518051929391926100dc9260018501920190610125565b50604082015180516100f8916002840191602090910190610125565b5060608201518051610114916003840191602090910190610125565b505050600101610025565b506101c0565b828054600181600116156101000203166002900490600052602060002090601f016020900481019282601f1061016657805160ff1916838001178555610193565b82800160010185558215610193579182015b82811115610193578251825591602001919060010190610178565b5061019f9291506101a3565b5090565b6101bd91905b8082111561019f57600081556001016101a9565b90565b610848806101cf6000396000f3fe6080604052600436106100705760003560e01c8063722713f71161004e578063722713f7146102545780639e9da18e14610269578063d0e30db01461029e578063e8b5e51f146102a657610070565b806350b44712146100755780635217c15a146101fc57806366d003ac14610223575b600080fd5b34801561008157600080fd5b5061009f6004803603602081101561009857600080fd5b50356102ae565b60405180856001600160a01b03166001600160a01b03168152602001806020018060200180602001848103845287818151815260200191508051906020019080838360005b838110156100fc5781810151838201526020016100e4565b50505050905090810190601f1680156101295780820380516001836020036101000a031916815260200191505b50848103835286518152865160209182019188019080838360005b8381101561015c578181015183820152602001610144565b50505050905090810190601f1680156101895780820380516001836020036101000a031916815260200191505b50848103825285518152855160209182019187019080838360005b838110156101bc5781810151838201526020016101a4565b50505050905090810190601f1680156101e95780820380516001836020036101000a031916815260200191505b5097505050505050505060405180910390f35b34801561020857600080fd5b50610211610484565b60408051918252519081900360200190f35b34801561022f57600080fd5b5061023861048a565b604080516001600160a01b039092168252519081900360200190f35b34801561026057600080fd5b50610211610499565b34801561027557600080fd5b5061029c6004803603602081101561028c57600080fd5b50356001600160a01b031661049e565b005b61029c6105af565b61029c610779565b6003602090815260009182526040918290208054600180830180548651600261010094831615949094026000190190911692909204601f81018690048602830186019096528582526001600160a01b039092169492939092908301828280156103585780601f1061032d57610100808354040283529160200191610358565b820191906000526020600020905b81548152906001019060200180831161033b57829003601f168201915b50505060028085018054604080516020601f60001961010060018716150201909416959095049283018590048502810185019091528181529596959450909250908301828280156103ea5780601f106103bf576101008083540402835291602001916103ea565b820191906000526020600020905b8154815290600101906020018083116103cd57829003601f168201915b5050505060038301805460408051602060026001851615610100026000190190941693909304601f810184900484028201840190925281815294959493509083018282801561047a5780601f1061044f5761010080835404028352916020019161047a565b820191906000526020600020905b81548152906001019060200180831161045d57829003601f168201915b5050505050905084565b60015481565b6000546001600160a01b031681565b475b90565b60005b6001548110156105ab576000818152600360205260409020546001600160a01b03838116911614156105a357600081815260036020818152604080842080546001600160a01b031916815581518083019092526009825268617661696c61626c6560b81b828401908152948690529290915251610524926002909201919061077b565b506040805180820182526006815265616e796f6e6560d01b6020808301918252600085815260039182905293909320915161056393929092019161077b565b506040516001600160a01b03831690600090670de0b6b3a76400009082818181858883f1935050505015801561059d573d6000803e3d6000fd5b506105ab565b6001016104a1565b5050565b600254341061074b576000805b6001548110156107115760405180604001604052806009815260200168617661696c61626c6560b81b815250805190602001206003600083815260200190815260200160002060020160405180828054600181600116156101000203166002900480156106605780601f1061063e576101008083540402835291820191610660565b820191906000526020600020905b81548152906001019060200180831161064c575b50509150506040518091039020141561070957600081815260036020818152604080842080546001600160a01b031916331781558151808301909252600b82526a756e617661696c61626c6560a81b8284019081529486905292909152516106ce926002909201919061077b565b506002546040513391340380156108fc02916000818181858888f193505050501580156106ff573d6000803e3d6000fd5b5060019150610711565b6001016105bc565b50806107455760405133903480156108fc02916000818181858888f19350505050158015610743573d6000803e3d6000fd5b505b50610779565b60405133903480156108fc02916000818181858888f19350505050158015610777573d6000803e3d6000fd5b505b565b828054600181600116156101000203166002900490600052602060002090601f016020900481019282601f106107bc57805160ff19168380011785556107e9565b828001600101855582156107e9579182015b828111156107e95782518255916020019190600101906107ce565b506107f59291506107f9565b5090565b61049b91905b808211156107f557600081556001016107ff56fea265627a7a723158208df56ca838dcc1fee1cc64150a6c084540f44f0ae2d965b6e85b7fa41d37266564736f6c63430005100032",
  "source": "pragma solidity ^0.5.0;\r\ncontract TicketSystem{\r\n  address payable public recipient; \r\n  uint public tot_tickets = 40;\r\n  uint tick_price = 1 ether;\r\n  struct Ticket{\r\n    address payable owner_id;\r\n    string movie_id;\r\n    string ticket_state;\r\n    string sell_to;\r\n\r\n  } \r\n  mapping(uint => Ticket) public tickets;\r\n  constructor() public {\r\n      \r\n  \r\n        for (uint i = 0; i < tot_tickets; i++)\r\n        {\r\n            tickets[i] = Ticket(address (0),\"N/A\",\"available\",\"anyone\");\r\n        }\r\n    }\r\n function redeem_to_pool(address payable owner_id) external \r\n {\r\n    //buyer_id.transfer(1 ether);\r\n    for(uint i=0; i < tot_tickets ; i++)\r\n    {\r\n      if(tickets[i].owner_id == owner_id)\r\n      {\r\n        tickets[i].owner_id = address(0);\r\n        tickets[i].ticket_state = \"available\";\r\n        tickets[i].sell_to = \"anyone\";\r\n        owner_id.transfer(1 ether);\r\n        break;\r\n\r\n      }\r\n    }\r\n }\r\n function balanceOf() external view returns (uint){\r\n     return address(this).balance;\r\n }\r\n function deposit() public payable {\r\n    if(msg.value>=tick_price)\r\n    {\r\n      bool found = false;\r\n      for(uint i = 0; i < tot_tickets; i++ )\r\n      {\r\n          if(keccak256(bytes(tickets[i].ticket_state)) == keccak256(bytes(\"available\")))\r\n          {\r\n            tickets[i].owner_id = msg.sender;\r\n            tickets[i].ticket_state = \"unavailable\";\r\n            msg.sender.transfer(msg.value - tick_price);\r\n            found = true;\r\n            break;\r\n          }\r\n      }\r\n      if(found == false)\r\n      {\r\n        msg.sender.transfer(msg.value);\r\n      }\r\n\r\n    }\r\n    else\r\n    {\r\n      msg.sender.transfer(msg.value);\r\n    }\r\n }\r\n  function uint2str(uint _i) internal pure returns (string memory _uintAsString) {\r\n    if (_i == 0) {\r\n        return \"0\";\r\n    }\r\n    uint j = _i;\r\n    uint len;\r\n    while (j != 0) {\r\n        len++;\r\n        j /= 10;\r\n    }\r\n    bytes memory bstr = new bytes(len);\r\n    uint k = len - 1;\r\n    while (_i != 0) {\r\n        bstr[k--] = byte(uint8(48 + _i % 10));\r\n        _i /= 10;\r\n    }\r\n    return string(bstr);\r\n}\r\n function invest() external payable{\r\n\r\n }\r\n\r\n}",
  "sourcePath": "D:/truffledemo/contracts/TicketSystem.sol",
  "compiler": {
    "name": "solc",
    "version": "0.5.16+commit.9c3226ce.Emscripten.clang"
  },
  "schemaVersion": "3.3.2",
  "updatedAt": "2020-12-07T13:18:51.078Z",
  "networkType": "ethereum",
  "devdoc": {
    "methods": {}
  },
  "userdoc": {
    "methods": {}
  }
}