{
  "contractName": "TicketSystem",
  "abi": [
    {
      "inputs": [],
      "payable": false,
      "stateMutability": "nonpayable",
      "type": "constructor"
    },
    {
      "constant": true,
      "inputs": [],
      "name": "recipient",
      "outputs": [
        {
          "internalType": "address payable",
          "name": "",
          "type": "address"
        }
      ],
      "payable": false,
      "stateMutability": "view",
      "type": "function"
    },
    {
      "constant": true,
      "inputs": [
        {
          "internalType": "uint256",
          "name": "",
          "type": "uint256"
        }
      ],
      "name": "tickets",
      "outputs": [
        {
          "internalType": "address payable",
          "name": "owner_id",
          "type": "address"
        },
        {
          "internalType": "string",
          "name": "movie_id",
          "type": "string"
        },
        {
          "internalType": "string",
          "name": "ticket_state",
          "type": "string"
        },
        {
          "internalType": "address payable",
          "name": "sell_to",
          "type": "address"
        }
      ],
      "payable": false,
      "stateMutability": "view",
      "type": "function"
    },
    {
      "constant": true,
      "inputs": [],
      "name": "tot_tickets",
      "outputs": [
        {
          "internalType": "uint256",
          "name": "",
          "type": "uint256"
        }
      ],
      "payable": false,
      "stateMutability": "view",
      "type": "function"
    },
    {
      "constant": false,
      "inputs": [
        {
          "internalType": "address payable",
          "name": "owner_id",
          "type": "address"
        }
      ],
      "name": "redeem_to_pool",
      "outputs": [],
      "payable": false,
      "stateMutability": "nonpayable",
      "type": "function"
    },
    {
      "constant": true,
      "inputs": [],
      "name": "balanceOf",
      "outputs": [
        {
          "internalType": "uint256",
          "name": "",
          "type": "uint256"
        }
      ],
      "payable": false,
      "stateMutability": "view",
      "type": "function"
    },
    {
      "constant": false,
      "inputs": [],
      "name": "buyTicket",
      "outputs": [],
      "payable": true,
      "stateMutability": "payable",
      "type": "function"
    },
    {
      "constant": false,
      "inputs": [],
      "name": "invest",
      "outputs": [],
      "payable": true,
      "stateMutability": "payable",
      "type": "function"
    },
    {
      "constant": false,
      "inputs": [
        {
          "internalType": "address payable",
          "name": "addr",
          "type": "address"
        }
      ],
      "name": "sell_to",
      "outputs": [],
      "payable": false,
      "stateMutability": "nonpayable",
      "type": "function"
    },
    {
      "constant": false,
      "inputs": [
        {
          "internalType": "uint256",
          "name": "ticket_id",
          "type": "uint256"
        }
      ],
      "name": "acceptTicket",
      "outputs": [],
      "payable": true,
      "stateMutability": "payable",
      "type": "function"
    }
  ],
  "bytecode": "0x60806040526028600155670de0b6b3a7640000600255600380546001600160a01b031916905534801561003157600080fd5b5060005b60015481101561012c5760408051608081018252600380546001600160a01b0390811680845284518086018652928352624e2f4160e81b602080850191909152808501938452855180870187526009815268617661696c61626c6560b81b8183015285870152606085019190915260008681526004825294909420835181546001600160a01b031916921691909117815590518051929391926100de9260018501920190610132565b50604082015180516100fa916002840191602090910190610132565b5060609190910151600390910180546001600160a01b0319166001600160a01b03909216919091179055600101610035565b506101cd565b828054600181600116156101000203166002900490600052602060002090601f016020900481019282601f1061017357805160ff19168380011785556101a0565b828001600101855582156101a0579182015b828111156101a0578251825591602001919060010190610185565b506101ac9291506101b0565b5090565b6101ca91905b808211156101ac57600081556001016101b6565b90565b610ac0806101dc6000396000f3fe6080604052600436106100865760003560e01c8063722713f711610059578063722713f71461023c5780639e9da18e14610251578063e8b5e51f14610284578063edca914c1461028c578063f4fd9d121461029457610086565b806318293ec61461008b57806350b44712146100aa5780635217c15a146101e457806366d003ac1461020b575b600080fd5b6100a8600480360360208110156100a157600080fd5b50356102c7565b005b3480156100b657600080fd5b506100d4600480360360208110156100cd57600080fd5b5035610465565b60405180856001600160a01b03166001600160a01b031681526020018060200180602001846001600160a01b03166001600160a01b03168152602001838103835286818151815260200191508051906020019080838360005b8381101561014557818101518382015260200161012d565b50505050905090810190601f1680156101725780820380516001836020036101000a031916815260200191505b50838103825285518152855160209182019187019080838360005b838110156101a557818101518382015260200161018d565b50505050905090810190601f1680156101d25780820380516001836020036101000a031916815260200191505b50965050505050505060405180910390f35b3480156101f057600080fd5b506101f96105ba565b60408051918252519081900360200190f35b34801561021757600080fd5b506102206105c0565b604080516001600160a01b039092168252519081900360200190f35b34801561024857600080fd5b506101f96105cf565b34801561025d57600080fd5b506100a86004803603602081101561027457600080fd5b50356001600160a01b03166105d4565b6100a86106d7565b6100a86106d9565b3480156102a057600080fd5b506100a8600480360360208110156102b757600080fd5b50356001600160a01b03166108a1565b6002543410610434576000818152600460205260409020600301546001600160a01b0316331415610401576002546040513391340380156108fc02916000818181858888f19350505050158015610322573d6000803e3d6000fd5b506000818152600460205260408082205460025491516001600160a01b0390911692839280156108fc02929091818181858888f1935050505015801561036c573d6000803e3d6000fd5b50600082815260046020818152604080842080546001600160a01b031916331781558151808301909252600b82526a756e617661696c61626c6560a81b8284019081529487905292909152516103c892600290920191906109f3565b505060038054600083815260046020526040902090910180546001600160a01b0319166001600160a01b0390921691909117905561042f565b60405133903480156108fc02916000818181858888f1935050505015801561042d573d6000803e3d6000fd5b505b610462565b60405133903480156108fc02916000818181858888f19350505050158015610460573d6000803e3d6000fd5b505b50565b6004602090815260009182526040918290208054600180830180548651600261010094831615949094026000190190911692909204601f81018690048602830186019096528582526001600160a01b0390921694929390929083018282801561050f5780601f106104e45761010080835404028352916020019161050f565b820191906000526020600020905b8154815290600101906020018083116104f257829003601f168201915b50505060028085018054604080516020601f60001961010060018716150201909416959095049283018590048502810185019091528181529596959450909250908301828280156105a15780601f10610576576101008083540402835291602001916105a1565b820191906000526020600020905b81548152906001019060200180831161058457829003601f168201915b505050600390930154919250506001600160a01b031684565b60015481565b6000546001600160a01b031681565b475b90565b60005b600154811015610460576000818152600460205260409020546001600160a01b03838116911614156106cf57600354600082815260046020818152604080842080546001600160a01b0319166001600160a01b0390961695909517855580518082019091526009815268617661696c61626c6560b81b81830190815293869052919052516106699260020191906109f3565b506003805460008381526004602052604080822090930180546001600160a01b0319166001600160a01b0393841617905591519084169190670de0b6b3a76400009082818181858883f193505050501580156106c9573d6000803e3d6000fd5b50610460565b6001016105d7565b565b6002543410610875576000805b60015481101561083b5760405180604001604052806009815260200168617661696c61626c6560b81b8152508051906020012060046000838152602001908152602001600020600201604051808280546001816001161561010002031660029004801561078a5780601f1061076857610100808354040283529182019161078a565b820191906000526020600020905b815481529060010190602001808311610776575b50509150506040518091039020141561083357600081815260046020818152604080842080546001600160a01b031916331781558151808301909252600b82526a756e617661696c61626c6560a81b8284019081529486905292909152516107f892600290920191906109f3565b506002546040513391340380156108fc02916000818181858888f19350505050158015610829573d6000803e3d6000fd5b506001915061083b565b6001016106e6565b508061086f5760405133903480156108fc02916000818181858888f1935050505015801561086d573d6000803e3d6000fd5b505b506106d7565b60405133903480156108fc02916000818181858888f19350505050158015610462573d6000803e3d6000fd5b60005b600154811015610460576000818152600460205260409020546001600160a01b03163314801561097a57506040518060400160405280600b81526020016a756e617661696c61626c6560a81b8152508051906020012060046000838152602001908152602001600020600201604051808280546001816001161561010002031660029004801561096b5780601f1061094957610100808354040283529182019161096b565b820191906000526020600020905b815481529060010190602001808311610957575b50509150506040518091039020145b156109eb5760008181526004602081815260408084206003810180546001600160a01b0319166001600160a01b0389161790558151808301909252600f82526e3ab82fb337b92fba3930b739b332b960891b8284019081529486905292909152516106c992600290920191906109f3565b6001016108a4565b828054600181600116156101000203166002900490600052602060002090601f016020900481019282601f10610a3457805160ff1916838001178555610a61565b82800160010185558215610a61579182015b82811115610a61578251825591602001919060010190610a46565b50610a6d929150610a71565b5090565b6105d191905b80821115610a6d5760008155600101610a7756fea265627a7a72315820e0552a554c95c4b6acc692aa7d1755781e0a257a8881e41567c303b0c0cbc07a64736f6c63430005100032",
  "source": "pragma solidity ^0.5.0;\r\ncontract TicketSystem{\r\n  address payable public recipient; \r\n  uint public tot_tickets = 40;\r\n  uint tick_price = 1 ether;\r\n  address payable null_addr = address(0);\r\n  struct Ticket{\r\n    address payable owner_id;\r\n    string movie_id;\r\n    string ticket_state;\r\n    address payable sell_to;\r\n\r\n  } \r\n  mapping(uint => Ticket) public tickets;\r\n  constructor() public {\r\n      \r\n  \r\n        for (uint i = 0; i < tot_tickets; i++)\r\n        {\r\n            tickets[i] = Ticket(null_addr,\"N/A\",\"available\",null_addr);\r\n        }\r\n    }\r\n function redeem_to_pool(address payable owner_id) external \r\n {\r\n    //buyer_id.transfer(1 ether);\r\n    for(uint i=0; i < tot_tickets ; i++)\r\n    {\r\n      if(tickets[i].owner_id == owner_id)\r\n      {\r\n        tickets[i].owner_id = null_addr;\r\n        tickets[i].ticket_state = \"available\";\r\n        tickets[i].sell_to = null_addr;\r\n        owner_id.transfer(1 ether);\r\n        break;\r\n\r\n      }\r\n    }\r\n }\r\n function balanceOf() external view returns (uint){\r\n     return address(this).balance;\r\n }\r\n function buyTicket() public payable {\r\n    if(msg.value>=tick_price)\r\n    {\r\n      bool found = false;\r\n      for(uint i = 0; i < tot_tickets; i++ )\r\n      {\r\n          if(keccak256(bytes(tickets[i].ticket_state)) == keccak256(bytes(\"available\")))\r\n          {\r\n            tickets[i].owner_id = msg.sender;\r\n            tickets[i].ticket_state = \"unavailable\";\r\n            msg.sender.transfer(msg.value - tick_price);\r\n            found = true;\r\n            break;\r\n          }\r\n      }\r\n      if(found == false)\r\n      {\r\n        msg.sender.transfer(msg.value);\r\n      }\r\n\r\n    }\r\n    else\r\n    {\r\n      msg.sender.transfer(msg.value);\r\n    }\r\n }\r\n  function uint2str(uint _i) internal pure returns (string memory _uintAsString) {\r\n    if (_i == 0) {\r\n        return \"0\";\r\n    }\r\n    uint j = _i;\r\n    uint len;\r\n    while (j != 0) {\r\n        len++;\r\n        j /= 10;\r\n    }\r\n    bytes memory bstr = new bytes(len);\r\n    uint k = len - 1;\r\n    while (_i != 0) {\r\n        bstr[k--] = byte(uint8(48 + _i % 10));\r\n        _i /= 10;\r\n    }\r\n    return string(bstr);\r\n}\r\n function invest() external payable{\r\n\r\n }\r\n\r\n// Sell_to -> A ticket owner can sell his ticket to a some guy with a particular address\r\n// Claim ticket -> If someone wants to sell you his ticket, you can claim it. This function completes two transactions.\r\n function sell_to(address payable addr) public \r\n {\r\n    for(uint i=0; i < tot_tickets ; i++)\r\n    {\r\n      if(tickets[i].owner_id == msg.sender && keccak256(bytes(tickets[i].ticket_state)) == keccak256(bytes(\"unavailable\")))\r\n      {\r\n        tickets[i].sell_to = addr;\r\n        tickets[i].ticket_state = \"up_for_transfer\";\r\n        break;\r\n      }\r\n    }\r\n }\r\n\r\nfunction acceptTicket(uint ticket_id) external payable\r\n{\r\n    if(msg.value>=tick_price)\r\n    {\r\n      if(tickets[ticket_id].sell_to == msg.sender)\r\n      {\r\n        msg.sender.transfer(msg.value-tick_price);\r\n        address payable addr = tickets[ticket_id].owner_id;\r\n        addr.transfer(tick_price);\r\n        tickets[ticket_id].owner_id = msg.sender;\r\n        tickets[ticket_id].ticket_state = \"unavailable\";\r\n        tickets[ticket_id].sell_to = null_addr;\r\n      }\r\n      else\r\n      {\r\n        msg.sender.transfer(msg.value);\r\n      }\r\n    }\r\n    else\r\n    {\r\n        msg.sender.transfer(msg.value);\r\n    }\r\n}\r\n  \r\n\r\n \r\n\r\n}",
  "sourcePath": "D:/truffledemo/contracts/TicketSystem.sol",
  "compiler": {
    "name": "solc",
    "version": "0.5.16+commit.9c3226ce.Emscripten.clang"
  },
  "schemaVersion": "3.3.2",
  "updatedAt": "2020-12-10T13:00:36.478Z",
  "networkType": "ethereum",
  "devdoc": {
    "methods": {}
  },
  "userdoc": {
    "methods": {}
  }
}