{
  "contractName": "TodoList",
  "abi": [
    {
      "inputs": [],
      "payable": false,
      "stateMutability": "nonpayable",
      "type": "constructor"
    },
    {
      "constant": true,
      "inputs": [],
      "name": "taskCount",
      "outputs": [
        {
          "internalType": "uint256",
          "name": "",
          "type": "uint256"
        }
      ],
      "payable": false,
      "stateMutability": "view",
      "type": "function"
    },
    {
      "constant": true,
      "inputs": [
        {
          "internalType": "uint256",
          "name": "",
          "type": "uint256"
        }
      ],
      "name": "tasks",
      "outputs": [
        {
          "internalType": "uint256",
          "name": "id",
          "type": "uint256"
        },
        {
          "internalType": "string",
          "name": "content",
          "type": "string"
        },
        {
          "internalType": "bool",
          "name": "completed",
          "type": "bool"
        },
        {
          "internalType": "string",
          "name": "owner_id",
          "type": "string"
        }
      ],
      "payable": false,
      "stateMutability": "view",
      "type": "function"
    },
    {
      "constant": false,
      "inputs": [
        {
          "internalType": "string",
          "name": "_content",
          "type": "string"
        },
        {
          "internalType": "string",
          "name": "owner_id",
          "type": "string"
        }
      ],
      "name": "createTask",
      "outputs": [],
      "payable": false,
      "stateMutability": "nonpayable",
      "type": "function"
    },
    {
      "constant": true,
      "inputs": [],
      "name": "balanceOf",
      "outputs": [
        {
          "internalType": "uint256",
          "name": "",
          "type": "uint256"
        }
      ],
      "payable": false,
      "stateMutability": "view",
      "type": "function"
    }
  ],
  "bytecode": "0x60806040526000805534801561001457600080fd5b50610558806100246000396000f3fe608060405234801561001057600080fd5b506004361061004c5760003560e01c8063292a458514610051578063722713f7146101805780638d9776721461019a578063b6cb58a5146102a7575b600080fd5b61017e6004803603604081101561006757600080fd5b81019060208101813564010000000081111561008257600080fd5b82018360208201111561009457600080fd5b803590602001918460018302840111640100000000831117156100b657600080fd5b91908080601f016020809104026020016040519081016040528093929190818152602001838380828437600092019190915250929594936020810193503591505064010000000081111561010957600080fd5b82018360208201111561011b57600080fd5b8035906020019184600183028401116401000000008311171561013d57600080fd5b91908080601f0160208091040260200160405190810160405280939291908181526020018383808284376000920191909152509295506102af945050505050565b005b61018861033e565b60408051918252519081900360200190f35b6101b7600480360360208110156101b057600080fd5b5035610343565b60405180858152602001806020018415151515815260200180602001838103835286818151815260200191508051906020019080838360005b838110156102085781810151838201526020016101f0565b50505050905090810190601f1680156102355780820380516001836020036101000a031916815260200191505b50838103825284518152845160209182019186019080838360005b83811015610268578181015183820152602001610250565b50505050905090810190601f1680156102955780820380516001836020036101000a031916815260200191505b50965050505050505060405180910390f35b610188610485565b6000805460019081018083556040805160808101825282815260208082018881528284018790526060830188905293865284815291909420845181559151805192936103039390850192919091019061048b565b50604082015160028201805460ff19169115159190911790556060820151805161033791600384019160209091019061048b565b5050505050565b475b90565b600160208181526000928352604092839020805481840180548651600296821615610100026000190190911695909504601f810185900485028601850190965285855290949193929091908301828280156103df5780601f106103b4576101008083540402835291602001916103df565b820191906000526020600020905b8154815290600101906020018083116103c257829003601f168201915b505050506002838101546003850180546040805160206101006001851615026000190190931695909504601f8101839004830286018301909152808552959660ff9093169592945090919083018282801561047b5780601f106104505761010080835404028352916020019161047b565b820191906000526020600020905b81548152906001019060200180831161045e57829003601f168201915b5050505050905084565b60005481565b828054600181600116156101000203166002900490600052602060002090601f016020900481019282601f106104cc57805160ff19168380011785556104f9565b828001600101855582156104f9579182015b828111156104f95782518255916020019190600101906104de565b50610505929150610509565b5090565b61034091905b80821115610505576000815560010161050f56fea265627a7a72315820e19b0ffe8d22f78fd13905ad1e705823e809dbd4f71046330a6c6910049d96bb64736f6c63430005100032",
  "source": "pragma solidity ^0.5.0;\r\n\r\ncontract TodoList {\r\n  uint public taskCount = 0;\r\n  \r\n  struct Task {\r\n    uint id;\r\n    string content;\r\n    bool completed;\r\n    string owner_id;\r\n  }\r\n  /* struct Ticket{\r\n    string owner_id;\r\n    string movie_name;\r\n    string date;\r\n  }*/\r\n\r\n  mapping(uint => Task) public tasks;\r\n  constructor() public {\r\n        \r\n      }\r\n  function createTask(string memory _content, string memory owner_id) public {\r\n    taskCount ++;\r\n\r\n    tasks[taskCount] = Task(taskCount, _content,false,owner_id);\r\n  }\r\n   function balanceOf() external view returns (uint){\r\n     return address(this).balance;\r\n }\r\n\r\n}\r\n\r\n",
  "sourcePath": "D:/truffledemo/contracts/TodoList.sol",
  "compiler": {
    "name": "solc",
    "version": "0.5.16+commit.9c3226ce.Emscripten.clang"
  },
  "schemaVersion": "3.3.2",
  "updatedAt": "2020-12-07T13:18:51.071Z",
  "networkType": "ethereum",
  "devdoc": {
    "methods": {}
  },
  "userdoc": {
    "methods": {}
  }
}